:030000000200ED0E
:0C00ED00787FE4F6D8FD75811102013423
:10000300010C00010D00020A07D0010801010901DA
:03001B0002017966
:10017900C0E0C0D0758BCD758DD4D3E50F9400E563
:100189000E94004008E50F150F7002150EE50F6477
:1001990001450E7002050CD3E5119400E510940099
:1001A9004008E511151170021510E511640145109B
:1001B9007009750C02850A0E850B0FD0D0D0E0327C
:10001E00758E40758910758BCD758DD4D28ED2AB01
:10002E00D2AF208406750A01750BF4208506750A79
:10003E0003750BE8208606750A07750BD02080160F
:10004E00A280E4336508600E30810B850A0E850BA5
:10005E000FE4F50C803720800DA280E43365086034
:10006E0005208102800E208113A281E43365096090
:10007E000B208008850A10850B11801130810EA28D
:10008E0081E43365096006208003750C01A280E4CB
:10009E0033F508A281E433F509308007D290D2926D
:1000AE00E4F50C308102D292208008E50C640170D8
:1000BE0002C29020800D20810AE50C64027004D2E9
:1000CE0090C292308003020030308103020030E58E
:0F00DE000C64036003020030C290C29202003033
:1000F90002001EE493A3F8E493A34003F68001F2FF
:1001090008DFF48029E493A3F85407240CC8C33307
:10011900C4540F4420C8834004F456800146F6DFD6
:10012900E4800B0102040810204080900003E47E63
:10013900019360BCA3FF543F30E509541FFEE493CB
:10014900A360010ECF54C025E060A840B8E493A392
:10015900FAE493A3F8E493A3C8C582C8CAC583CABD
:10016900F0A3C8C582C8CAC583CADFE9DEE780BE75
:0100130000EC
:00000001FF
